{
  "contractName": "Grumpy",
  "abi": [
    {
      "inputs": [],
      "stateMutability": "nonpayable",
      "type": "constructor"
    },
    {
      "anonymous": false,
      "inputs": [
        {
          "indexed": true,
          "internalType": "address",
          "name": "owner",
          "type": "address"
        },
        {
          "indexed": true,
          "internalType": "address",
          "name": "spender",
          "type": "address"
        },
        {
          "indexed": false,
          "internalType": "uint256",
          "name": "value",
          "type": "uint256"
        }
      ],
      "name": "Approval",
      "type": "event"
    },
    {
      "anonymous": false,
      "inputs": [
        {
          "indexed": true,
          "internalType": "address",
          "name": "from",
          "type": "address"
        },
        {
          "indexed": true,
          "internalType": "address",
          "name": "to",
          "type": "address"
        },
        {
          "indexed": false,
          "internalType": "uint256",
          "name": "value",
          "type": "uint256"
        }
      ],
      "name": "Transfer",
      "type": "event"
    },
    {
      "inputs": [
        {
          "internalType": "address",
          "name": "owner",
          "type": "address"
        },
        {
          "internalType": "address",
          "name": "spender",
          "type": "address"
        }
      ],
      "name": "allowance",
      "outputs": [
        {
          "internalType": "uint256",
          "name": "",
          "type": "uint256"
        }
      ],
      "stateMutability": "view",
      "type": "function",
      "constant": true
    },
    {
      "inputs": [
        {
          "internalType": "address",
          "name": "spender",
          "type": "address"
        },
        {
          "internalType": "uint256",
          "name": "amount",
          "type": "uint256"
        }
      ],
      "name": "approve",
      "outputs": [
        {
          "internalType": "bool",
          "name": "",
          "type": "bool"
        }
      ],
      "stateMutability": "nonpayable",
      "type": "function"
    },
    {
      "inputs": [
        {
          "internalType": "address",
          "name": "account",
          "type": "address"
        }
      ],
      "name": "balanceOf",
      "outputs": [
        {
          "internalType": "uint256",
          "name": "",
          "type": "uint256"
        }
      ],
      "stateMutability": "view",
      "type": "function",
      "constant": true
    },
    {
      "inputs": [],
      "name": "cap",
      "outputs": [
        {
          "internalType": "uint256",
          "name": "",
          "type": "uint256"
        }
      ],
      "stateMutability": "view",
      "type": "function",
      "constant": true
    },
    {
      "inputs": [],
      "name": "capped_supply",
      "outputs": [
        {
          "internalType": "uint256",
          "name": "",
          "type": "uint256"
        }
      ],
      "stateMutability": "view",
      "type": "function",
      "constant": true
    },
    {
      "inputs": [],
      "name": "charity_wallet",
      "outputs": [
        {
          "internalType": "address",
          "name": "",
          "type": "address"
        }
      ],
      "stateMutability": "view",
      "type": "function",
      "constant": true
    },
    {
      "inputs": [
        {
          "internalType": "address",
          "name": "spender",
          "type": "address"
        },
        {
          "internalType": "uint256",
          "name": "subtractedValue",
          "type": "uint256"
        }
      ],
      "name": "decreaseAllowance",
      "outputs": [
        {
          "internalType": "bool",
          "name": "",
          "type": "bool"
        }
      ],
      "stateMutability": "nonpayable",
      "type": "function"
    },
    {
      "inputs": [],
      "name": "developer_wallet",
      "outputs": [
        {
          "internalType": "address",
          "name": "",
          "type": "address"
        }
      ],
      "stateMutability": "view",
      "type": "function",
      "constant": true
    },
    {
      "inputs": [
        {
          "internalType": "address",
          "name": "spender",
          "type": "address"
        },
        {
          "internalType": "uint256",
          "name": "addedValue",
          "type": "uint256"
        }
      ],
      "name": "increaseAllowance",
      "outputs": [
        {
          "internalType": "bool",
          "name": "",
          "type": "bool"
        }
      ],
      "stateMutability": "nonpayable",
      "type": "function"
    },
    {
      "inputs": [],
      "name": "initialBalance",
      "outputs": [
        {
          "internalType": "uint256",
          "name": "",
          "type": "uint256"
        }
      ],
      "stateMutability": "view",
      "type": "function",
      "constant": true
    },
    {
      "inputs": [],
      "name": "name",
      "outputs": [
        {
          "internalType": "string",
          "name": "",
          "type": "string"
        }
      ],
      "stateMutability": "view",
      "type": "function",
      "constant": true
    },
    {
      "inputs": [],
      "name": "owner",
      "outputs": [
        {
          "internalType": "address",
          "name": "",
          "type": "address"
        }
      ],
      "stateMutability": "view",
      "type": "function",
      "constant": true
    },
    {
      "inputs": [],
      "name": "symbol",
      "outputs": [
        {
          "internalType": "string",
          "name": "",
          "type": "string"
        }
      ],
      "stateMutability": "view",
      "type": "function",
      "constant": true
    },
    {
      "inputs": [],
      "name": "token_name",
      "outputs": [
        {
          "internalType": "string",
          "name": "",
          "type": "string"
        }
      ],
      "stateMutability": "view",
      "type": "function",
      "constant": true
    },
    {
      "inputs": [],
      "name": "token_symbol",
      "outputs": [
        {
          "internalType": "string",
          "name": "",
          "type": "string"
        }
      ],
      "stateMutability": "view",
      "type": "function",
      "constant": true
    },
    {
      "inputs": [],
      "name": "totalSupply",
      "outputs": [
        {
          "internalType": "uint256",
          "name": "",
          "type": "uint256"
        }
      ],
      "stateMutability": "view",
      "type": "function",
      "constant": true
    },
    {
      "inputs": [
        {
          "internalType": "address",
          "name": "sender",
          "type": "address"
        },
        {
          "internalType": "address",
          "name": "recipient",
          "type": "address"
        },
        {
          "internalType": "uint256",
          "name": "amount",
          "type": "uint256"
        }
      ],
      "name": "transferFrom",
      "outputs": [
        {
          "internalType": "bool",
          "name": "",
          "type": "bool"
        }
      ],
      "stateMutability": "nonpayable",
      "type": "function"
    },
    {
      "inputs": [],
      "name": "decimals",
      "outputs": [
        {
          "internalType": "uint8",
          "name": "",
          "type": "uint8"
        }
      ],
      "stateMutability": "view",
      "type": "function",
      "constant": true
    },
    {
      "inputs": [
        {
          "internalType": "address",
          "name": "recipient",
          "type": "address"
        },
        {
          "internalType": "uint256",
          "name": "amount",
          "type": "uint256"
        }
      ],
      "name": "transfer",
      "outputs": [
        {
          "internalType": "bool",
          "name": "",
          "type": "bool"
        }
      ],
      "stateMutability": "nonpayable",
      "type": "function"
    }
  ],
  "bytecode": "0x60a06040526001600555600160065560016007556040518060400160405280600e81526020017f4772756d70792046696e616e6365000000000000000000000000000000000000815250600890805190602001906200006092919062000488565b506040518060400160405280600681526020017f4752554d5059000000000000000000000000000000000000000000000000000081525060099080519060200190620000ae92919062000488565b5069152d02c7e14af6800000600a5569152d02c7e14af6800000600b55348015620000d857600080fd5b50600a5460088054620000eb906200070a565b80601f016020809104026020016040519081016040528092919081815260200182805462000119906200070a565b80156200016a5780601f106200013e576101008083540402835291602001916200016a565b820191906000526020600020905b8154815290600101906020018083116200014c57829003601f168201915b5050505050600980546200017e906200070a565b80601f0160208091040260200160405190810160405280929190818152602001828054620001ac906200070a565b8015620001fd5780601f10620001d157610100808354040283529160200191620001fd565b820191906000526020600020905b815481529060010190602001808311620001df57829003601f168201915b505050505081600390805190602001906200021a92919062000488565b5080600490805190602001906200023392919062000488565b505050600081116200027c576040517f08c379a000000000000000000000000000000000000000000000000000000000815260040162000273906200060f565b60405180910390fd5b806080818152505050600a54600b541115620002cf576040517f08c379a0000000000000000000000000000000000000000000000000000000008152600401620002c69062000631565b60405180910390fd5b620002f7620002e3620002fd60201b60201c565b600b546200030560201b62000b551760201c565b6200079e565b600033905090565b600073ffffffffffffffffffffffffffffffffffffffff168273ffffffffffffffffffffffffffffffffffffffff16141562000378576040517f08c379a00000000000000000000000000000000000000000000000000000000081526004016200036f9062000653565b60405180910390fd5b6200038c600083836200047e60201b60201c565b8060026000828254620003a09190620006a3565b92505081905550806000808473ffffffffffffffffffffffffffffffffffffffff1673ffffffffffffffffffffffffffffffffffffffff1681526020019081526020016000206000828254620003f79190620006a3565b925050819055508173ffffffffffffffffffffffffffffffffffffffff16600073ffffffffffffffffffffffffffffffffffffffff167fddf252ad1be2c89b69c2b068fc378daa952ba7f163c4a11628f55a4df523b3ef836040516200045e919062000675565b60405180910390a36200047a600083836200048360201b60201c565b5050565b505050565b505050565b82805462000496906200070a565b90600052602060002090601f016020900481019282620004ba576000855562000506565b82601f10620004d557805160ff191683800117855562000506565b8280016001018555821562000506579182015b8281111562000505578251825591602001919060010190620004e8565b5b50905062000515919062000519565b5090565b5b80821115620005345760008160009055506001016200051a565b5090565b60006200054760158362000692565b91507f45524332304361707065643a20636170206973203000000000000000000000006000830152602082019050919050565b60006200058960198362000692565b91507f436f6d6d6f6e45524332303a20636170206578636565646564000000000000006000830152602082019050919050565b6000620005cb601f8362000692565b91507f45524332303a206d696e7420746f20746865207a65726f2061646472657373006000830152602082019050919050565b620006098162000700565b82525050565b600060208201905081810360008301526200062a8162000538565b9050919050565b600060208201905081810360008301526200064c816200057a565b9050919050565b600060208201905081810360008301526200066e81620005bc565b9050919050565b60006020820190506200068c6000830184620005fe565b92915050565b600082825260208201905092915050565b6000620006b08262000700565b9150620006bd8362000700565b9250827fffffffffffffffffffffffffffffffffffffffffffffffffffffffffffffffff03821115620006f557620006f462000740565b5b828201905092915050565b6000819050919050565b600060028204905060018216806200072357607f821691505b602082108114156200073a57620007396200076f565b5b50919050565b7f4e487b7100000000000000000000000000000000000000000000000000000000600052601160045260246000fd5b7f4e487b7100000000000000000000000000000000000000000000000000000000600052602260045260246000fd5b608051611d36620007ba600039600061064f0152611d366000f3fe608060405234801561001057600080fd5b50600436106101215760003560e01c8063355274ea116100ad578063947a316811610071578063947a31681461031257806395d89b4114610330578063a457c2d71461034e578063a9059cbb1461037e578063dd62ed3e146103ae57610121565b8063355274ea1461025857806339509351146102765780634465c7d1146102a657806370a08231146102c45780638da5cb5b146102f457610121565b80631dc1ba77116100f45780631dc1ba77146101b05780631f772a34146101ce5780632325b961146101ec57806323b872dd1461020a578063313ce5671461023a57610121565b806306fdde0314610126578063095ea7b31461014457806318160ddd1461017457806318369a2a14610192575b600080fd5b61012e6103de565b60405161013b91906118b1565b60405180910390f35b61015e600480360381019061015991906113f4565b610470565b60405161016b9190611896565b60405180910390f35b61017c61048e565b6040516101899190611a13565b60405180910390f35b61019a610498565b6040516101a79190611a13565b60405180910390f35b6101b861049e565b6040516101c5919061187b565b60405180910390f35b6101d66104b6565b6040516101e391906118b1565b60405180910390f35b6101f4610544565b6040516102019190611a13565b60405180910390f35b610224600480360381019061021f91906113a5565b61054a565b6040516102319190611896565b60405180910390f35b610242610642565b60405161024f9190611a2e565b60405180910390f35b61026061064b565b60405161026d9190611a13565b60405180910390f35b610290600480360381019061028b91906113f4565b610673565b60405161029d9190611896565b60405180910390f35b6102ae61071f565b6040516102bb919061187b565b60405180910390f35b6102de60048036038101906102d99190611340565b610737565b6040516102eb9190611a13565b60405180910390f35b6102fc61077f565b604051610309919061187b565b60405180910390f35b61031a6107a5565b60405161032791906118b1565b60405180910390f35b610338610833565b60405161034591906118b1565b60405180910390f35b610368600480360381019061036391906113f4565b6108c5565b6040516103759190611896565b60405180910390f35b610398600480360381019061039391906113f4565b6109b0565b6040516103a59190611896565b60405180910390f35b6103c860048036038101906103c39190611369565b610ace565b6040516103d59190611a13565b60405180910390f35b6060600380546103ed90611c02565b80601f016020809104026020016040519081016040528092919081815260200182805461041990611c02565b80156104665780601f1061043b57610100808354040283529160200191610466565b820191906000526020600020905b81548152906001019060200180831161044957829003601f168201915b5050505050905090565b600061048461047d610cb5565b8484610cbd565b6001905092915050565b6000600254905090565b600b5481565b732789f51db58676895afb1227d03c4e950169258181565b600980546104c390611c02565b80601f01602080910402602001604051908101604052809291908181526020018280546104ef90611c02565b801561053c5780601f106105115761010080835404028352916020019161053c565b820191906000526020600020905b81548152906001019060200180831161051f57829003601f168201915b505050505081565b600a5481565b6000610557848484610e88565b6000600160008673ffffffffffffffffffffffffffffffffffffffff1673ffffffffffffffffffffffffffffffffffffffff16815260200190815260200160002060006105a2610cb5565b73ffffffffffffffffffffffffffffffffffffffff1673ffffffffffffffffffffffffffffffffffffffff16815260200190815260200160002054905082811015610622576040517f08c379a000000000000000000000000000000000000000000000000000000000815260040161061990611953565b60405180910390fd5b6106368561062e610cb5565b858403610cbd565b60019150509392505050565b60006009905090565b60007f0000000000000000000000000000000000000000000000000000000000000000905090565b6000610715610680610cb5565b84846001600061068e610cb5565b73ffffffffffffffffffffffffffffffffffffffff1673ffffffffffffffffffffffffffffffffffffffff16815260200190815260200160002060008873ffffffffffffffffffffffffffffffffffffffff1673ffffffffffffffffffffffffffffffffffffffff168152602001908152602001600020546107109190611a65565b610cbd565b6001905092915050565b73bcb683e807737c15558f9b0c1120fdf2ec84898781565b60008060008373ffffffffffffffffffffffffffffffffffffffff1673ffffffffffffffffffffffffffffffffffffffff168152602001908152602001600020549050919050565b600c60009054906101000a900473ffffffffffffffffffffffffffffffffffffffff1681565b600880546107b290611c02565b80601f01602080910402602001604051908101604052809291908181526020018280546107de90611c02565b801561082b5780601f106108005761010080835404028352916020019161082b565b820191906000526020600020905b81548152906001019060200180831161080e57829003601f168201915b505050505081565b60606004805461084290611c02565b80601f016020809104026020016040519081016040528092919081815260200182805461086e90611c02565b80156108bb5780601f10610890576101008083540402835291602001916108bb565b820191906000526020600020905b81548152906001019060200180831161089e57829003601f168201915b5050505050905090565b600080600160006108d4610cb5565b73ffffffffffffffffffffffffffffffffffffffff1673ffffffffffffffffffffffffffffffffffffffff16815260200190815260200160002060008573ffffffffffffffffffffffffffffffffffffffff1673ffffffffffffffffffffffffffffffffffffffff16815260200190815260200160002054905082811015610991576040517f08c379a0000000000000000000000000000000000000000000000000000000008152600401610988906119d3565b60405180910390fd5b6109a561099c610cb5565b85858403610cbd565b600191505092915050565b60008060646109ca6006548561110990919063ffffffff16565b6109d49190611abb565b9050600060646109ef6005548661110990919063ffffffff16565b6109f99190611abb565b905060006064610a146007548761110990919063ffffffff16565b610a1e9190611abb565b9050610a31610a2b610cb5565b8461111f565b610a57610a3c610cb5565b732789f51db58676895afb1227d03c4e950169258184610e88565b610a7d610a62610cb5565b73bcb683e807737c15558f9b0c1120fdf2ec84898783610e88565b610ac5610a88610cb5565b87610ac084610ab287610aa48a8d6112f690919063ffffffff16565b6112f690919063ffffffff16565b6112f690919063ffffffff16565b610e88565b50505092915050565b6000600160008473ffffffffffffffffffffffffffffffffffffffff1673ffffffffffffffffffffffffffffffffffffffff16815260200190815260200160002060008373ffffffffffffffffffffffffffffffffffffffff1673ffffffffffffffffffffffffffffffffffffffff16815260200190815260200160002054905092915050565b600073ffffffffffffffffffffffffffffffffffffffff168273ffffffffffffffffffffffffffffffffffffffff161415610bc5576040517f08c379a0000000000000000000000000000000000000000000000000000000008152600401610bbc906119f3565b60405180910390fd5b610bd16000838361130c565b8060026000828254610be39190611a65565b92505081905550806000808473ffffffffffffffffffffffffffffffffffffffff1673ffffffffffffffffffffffffffffffffffffffff1681526020019081526020016000206000828254610c389190611a65565b925050819055508173ffffffffffffffffffffffffffffffffffffffff16600073ffffffffffffffffffffffffffffffffffffffff167fddf252ad1be2c89b69c2b068fc378daa952ba7f163c4a11628f55a4df523b3ef83604051610c9d9190611a13565b60405180910390a3610cb160008383611311565b5050565b600033905090565b600073ffffffffffffffffffffffffffffffffffffffff168373ffffffffffffffffffffffffffffffffffffffff161415610d2d576040517f08c379a0000000000000000000000000000000000000000000000000000000008152600401610d24906119b3565b60405180910390fd5b600073ffffffffffffffffffffffffffffffffffffffff168273ffffffffffffffffffffffffffffffffffffffff161415610d9d576040517f08c379a0000000000000000000000000000000000000000000000000000000008152600401610d9490611913565b60405180910390fd5b80600160008573ffffffffffffffffffffffffffffffffffffffff1673ffffffffffffffffffffffffffffffffffffffff16815260200190815260200160002060008473ffffffffffffffffffffffffffffffffffffffff1673ffffffffffffffffffffffffffffffffffffffff168152602001908152602001600020819055508173ffffffffffffffffffffffffffffffffffffffff168373ffffffffffffffffffffffffffffffffffffffff167f8c5be1e5ebec7d5bd14f71427d1e84f3dd0314c0f7b2291e5b200ac8c7c3b92583604051610e7b9190611a13565b60405180910390a3505050565b600073ffffffffffffffffffffffffffffffffffffffff168373ffffffffffffffffffffffffffffffffffffffff161415610ef8576040517f08c379a0000000000000000000000000000000000000000000000000000000008152600401610eef90611993565b60405180910390fd5b600073ffffffffffffffffffffffffffffffffffffffff168273ffffffffffffffffffffffffffffffffffffffff161415610f68576040517f08c379a0000000000000000000000000000000000000000000000000000000008152600401610f5f906118d3565b60405180910390fd5b610f7383838361130c565b60008060008573ffffffffffffffffffffffffffffffffffffffff1673ffffffffffffffffffffffffffffffffffffffff16815260200190815260200160002054905081811015610ff9576040517f08c379a0000000000000000000000000000000000000000000000000000000008152600401610ff090611933565b60405180910390fd5b8181036000808673ffffffffffffffffffffffffffffffffffffffff1673ffffffffffffffffffffffffffffffffffffffff16815260200190815260200160002081905550816000808573ffffffffffffffffffffffffffffffffffffffff1673ffffffffffffffffffffffffffffffffffffffff168152602001908152602001600020600082825461108c9190611a65565b925050819055508273ffffffffffffffffffffffffffffffffffffffff168473ffffffffffffffffffffffffffffffffffffffff167fddf252ad1be2c89b69c2b068fc378daa952ba7f163c4a11628f55a4df523b3ef846040516110f09190611a13565b60405180910390a3611103848484611311565b50505050565b600081836111179190611aec565b905092915050565b600073ffffffffffffffffffffffffffffffffffffffff168273ffffffffffffffffffffffffffffffffffffffff16141561118f576040517f08c379a000000000000000000000000000000000000000000000000000000000815260040161118690611973565b60405180910390fd5b61119b8260008361130c565b60008060008473ffffffffffffffffffffffffffffffffffffffff1673ffffffffffffffffffffffffffffffffffffffff16815260200190815260200160002054905081811015611221576040517f08c379a0000000000000000000000000000000000000000000000000000000008152600401611218906118f3565b60405180910390fd5b8181036000808573ffffffffffffffffffffffffffffffffffffffff1673ffffffffffffffffffffffffffffffffffffffff1681526020019081526020016000208190555081600260008282546112789190611b46565b92505081905550600073ffffffffffffffffffffffffffffffffffffffff168373ffffffffffffffffffffffffffffffffffffffff167fddf252ad1be2c89b69c2b068fc378daa952ba7f163c4a11628f55a4df523b3ef846040516112dd9190611a13565b60405180910390a36112f183600084611311565b505050565b600081836113049190611b46565b905092915050565b505050565b505050565b60008135905061132581611cd2565b92915050565b60008135905061133a81611ce9565b92915050565b60006020828403121561135257600080fd5b600061136084828501611316565b91505092915050565b6000806040838503121561137c57600080fd5b600061138a85828601611316565b925050602061139b85828601611316565b9150509250929050565b6000806000606084860312156113ba57600080fd5b60006113c886828701611316565b93505060206113d986828701611316565b92505060406113ea8682870161132b565b9150509250925092565b6000806040838503121561140757600080fd5b600061141585828601611316565b92505060206114268582860161132b565b9150509250929050565b61143981611b7a565b82525050565b61144881611b8c565b82525050565b600061145982611a49565b6114638185611a54565b9350611473818560208601611bcf565b61147c81611cc1565b840191505092915050565b6000611494602383611a54565b91507f45524332303a207472616e7366657220746f20746865207a65726f206164647260008301527f65737300000000000000000000000000000000000000000000000000000000006020830152604082019050919050565b60006114fa602283611a54565b91507f45524332303a206275726e20616d6f756e7420657863656564732062616c616e60008301527f63650000000000000000000000000000000000000000000000000000000000006020830152604082019050919050565b6000611560602283611a54565b91507f45524332303a20617070726f766520746f20746865207a65726f20616464726560008301527f73730000000000000000000000000000000000000000000000000000000000006020830152604082019050919050565b60006115c6602683611a54565b91507f45524332303a207472616e7366657220616d6f756e742065786365656473206260008301527f616c616e636500000000000000000000000000000000000000000000000000006020830152604082019050919050565b600061162c602883611a54565b91507f45524332303a207472616e7366657220616d6f756e742065786365656473206160008301527f6c6c6f77616e63650000000000000000000000000000000000000000000000006020830152604082019050919050565b6000611692602183611a54565b91507f45524332303a206275726e2066726f6d20746865207a65726f2061646472657360008301527f73000000000000000000000000000000000000000000000000000000000000006020830152604082019050919050565b60006116f8602583611a54565b91507f45524332303a207472616e736665722066726f6d20746865207a65726f20616460008301527f64726573730000000000000000000000000000000000000000000000000000006020830152604082019050919050565b600061175e602483611a54565b91507f45524332303a20617070726f76652066726f6d20746865207a65726f2061646460008301527f72657373000000000000000000000000000000000000000000000000000000006020830152604082019050919050565b60006117c4602583611a54565b91507f45524332303a2064656372656173656420616c6c6f77616e63652062656c6f7760008301527f207a65726f0000000000000000000000000000000000000000000000000000006020830152604082019050919050565b600061182a601f83611a54565b91507f45524332303a206d696e7420746f20746865207a65726f2061646472657373006000830152602082019050919050565b61186681611bb8565b82525050565b61187581611bc2565b82525050565b60006020820190506118906000830184611430565b92915050565b60006020820190506118ab600083018461143f565b92915050565b600060208201905081810360008301526118cb818461144e565b905092915050565b600060208201905081810360008301526118ec81611487565b9050919050565b6000602082019050818103600083015261190c816114ed565b9050919050565b6000602082019050818103600083015261192c81611553565b9050919050565b6000602082019050818103600083015261194c816115b9565b9050919050565b6000602082019050818103600083015261196c8161161f565b9050919050565b6000602082019050818103600083015261198c81611685565b9050919050565b600060208201905081810360008301526119ac816116eb565b9050919050565b600060208201905081810360008301526119cc81611751565b9050919050565b600060208201905081810360008301526119ec816117b7565b9050919050565b60006020820190508181036000830152611a0c8161181d565b9050919050565b6000602082019050611a28600083018461185d565b92915050565b6000602082019050611a43600083018461186c565b92915050565b600081519050919050565b600082825260208201905092915050565b6000611a7082611bb8565b9150611a7b83611bb8565b9250827fffffffffffffffffffffffffffffffffffffffffffffffffffffffffffffffff03821115611ab057611aaf611c34565b5b828201905092915050565b6000611ac682611bb8565b9150611ad183611bb8565b925082611ae157611ae0611c63565b5b828204905092915050565b6000611af782611bb8565b9150611b0283611bb8565b9250817fffffffffffffffffffffffffffffffffffffffffffffffffffffffffffffffff0483118215151615611b3b57611b3a611c34565b5b828202905092915050565b6000611b5182611bb8565b9150611b5c83611bb8565b925082821015611b6f57611b6e611c34565b5b828203905092915050565b6000611b8582611b98565b9050919050565b60008115159050919050565b600073ffffffffffffffffffffffffffffffffffffffff82169050919050565b6000819050919050565b600060ff82169050919050565b60005b83811015611bed578082015181840152602081019050611bd2565b83811115611bfc576000848401525b50505050565b60006002820490506001821680611c1a57607f821691505b60208210811415611c2e57611c2d611c92565b5b50919050565b7f4e487b7100000000000000000000000000000000000000000000000000000000600052601160045260246000fd5b7f4e487b7100000000000000000000000000000000000000000000000000000000600052601260045260246000fd5b7f4e487b7100000000000000000000000000000000000000000000000000000000600052602260045260246000fd5b6000601f19601f8301169050919050565b611cdb81611b7a565b8114611ce657600080fd5b50565b611cf281611bb8565b8114611cfd57600080fd5b5056fea26469706673582212204d5e5c5c2bcdf5e01a36ff2e32619c327e54373fdb540c0ed51c87e08d15c29164736f6c63430008000033",
  "immutableReferences": {
    "1152": [
      {
        "length": 32,
        "start": 1615
      }
    ]
  },
  "source": "pragma solidity ^0.8.0;\r\n\r\nimport \"@openzeppelin/contracts/token/ERC20/ERC20.sol\";\r\nimport \"@openzeppelin/contracts/utils/math/SafeMath.sol\";\r\nimport \"@openzeppelin/contracts/token/ERC20/extensions/ERC20Capped.sol\";\r\n\r\ncontract Grumpy is ERC20Capped {\r\n    using SafeMath for uint256;\r\n    // Declare Charity Fee\r\n    uint256 CHARITY_FEE = 1;\r\n    // Declare Burn Fee\r\n    uint256 BURN_FEE = 1;\r\n    // Declare Developer Fee\r\n    uint256 DEVELOPER_FEE = 1;\r\n\r\n    address public constant charity_wallet =\r\n        0x2789f51DB58676895aFb1227D03c4E9501692581;\r\n    address public constant developer_wallet =\r\n        0xBCb683E807737c15558F9b0C1120fdf2EC848987;\r\n\r\n    // Declare the parameters of the token\r\n\r\n    string public token_name = \"Grumpy Finance\";\r\n    string public token_symbol = \"GRUMPY\";\r\n    // Create a capped supply of 100 Trillion Tokens\r\n    uint256 public capped_supply = 100 * 10**12 * 10**9;\r\n    // Create an initial balance of 100 Trillion Tokens\r\n    uint256 public initialBalance = 100 * 10**12 * 10**9;\r\n\r\n    // Declare the owner\r\n\r\n    address public owner;\r\n\r\n    constructor()\r\n        public\r\n        ERC20(token_name, token_symbol)\r\n        ERC20Capped(capped_supply)\r\n    {\r\n        require(initialBalance <= capped_supply, \"CommonERC20: cap exceeded\");\r\n        ERC20._mint(_msgSender(), initialBalance);\r\n    }\r\n\r\n    function decimals() public view virtual override returns (uint8) {\r\n        return 9;\r\n    }\r\n\r\n    function transfer(address recipient, uint256 amount)\r\n        public\r\n        override\r\n        returns (bool)\r\n    {\r\n        uint256 burnAmount = amount.mul(BURN_FEE) / 100;\r\n        uint256 charityAmount = amount.mul(CHARITY_FEE) / 100;\r\n        uint256 developerAmount = amount.mul(DEVELOPER_FEE) / 100;\r\n\r\n        // uint256 developerAmount = amount.mul(DEVELOPER_FEE) / 100;\r\n        _burn(_msgSender(), burnAmount);\r\n        _transfer(_msgSender(), charity_wallet, charityAmount);\r\n        _transfer(_msgSender(), developer_wallet, developerAmount);\r\n        _transfer(\r\n            _msgSender(),\r\n            recipient,\r\n            amount.sub(burnAmount).sub(charityAmount).sub(developerAmount)\r\n        );\r\n    }\r\n}\r\n",
  "sourcePath": "C:/Users/kdmcg/Documents/oz/contracts/Grumpy.sol",
  "compiler": {
    "name": "solc",
    "version": "0.8.0+commit.c7dfd78e.Emscripten.clang"
  },
  "schemaVersion": "3.2.3",
  "updatedAt": "2021-08-15T15:57:01.906Z",
  "networkType": "ethereum",
  "devdoc": {
    "kind": "dev",
    "methods": {
      "allowance(address,address)": {
        "details": "See {IERC20-allowance}."
      },
      "approve(address,uint256)": {
        "details": "See {IERC20-approve}. Requirements: - `spender` cannot be the zero address."
      },
      "balanceOf(address)": {
        "details": "See {IERC20-balanceOf}."
      },
      "cap()": {
        "details": "Returns the cap on the token's total supply."
      },
      "decimals()": {
        "details": "Returns the number of decimals used to get its user representation. For example, if `decimals` equals `2`, a balance of `505` tokens should be displayed to a user as `5,05` (`505 / 10 ** 2`). Tokens usually opt for a value of 18, imitating the relationship between Ether and Wei. This is the value {ERC20} uses, unless this function is overridden; NOTE: This information is only used for _display_ purposes: it in no way affects any of the arithmetic of the contract, including {IERC20-balanceOf} and {IERC20-transfer}."
      },
      "decreaseAllowance(address,uint256)": {
        "details": "Atomically decreases the allowance granted to `spender` by the caller. This is an alternative to {approve} that can be used as a mitigation for problems described in {IERC20-approve}. Emits an {Approval} event indicating the updated allowance. Requirements: - `spender` cannot be the zero address. - `spender` must have allowance for the caller of at least `subtractedValue`."
      },
      "increaseAllowance(address,uint256)": {
        "details": "Atomically increases the allowance granted to `spender` by the caller. This is an alternative to {approve} that can be used as a mitigation for problems described in {IERC20-approve}. Emits an {Approval} event indicating the updated allowance. Requirements: - `spender` cannot be the zero address."
      },
      "name()": {
        "details": "Returns the name of the token."
      },
      "symbol()": {
        "details": "Returns the symbol of the token, usually a shorter version of the name."
      },
      "totalSupply()": {
        "details": "See {IERC20-totalSupply}."
      },
      "transfer(address,uint256)": {
        "details": "See {IERC20-transfer}. Requirements: - `recipient` cannot be the zero address. - the caller must have a balance of at least `amount`."
      },
      "transferFrom(address,address,uint256)": {
        "details": "See {IERC20-transferFrom}. Emits an {Approval} event indicating the updated allowance. This is not required by the EIP. See the note at the beginning of {ERC20}. Requirements: - `sender` and `recipient` cannot be the zero address. - `sender` must have a balance of at least `amount`. - the caller must have allowance for ``sender``'s tokens of at least `amount`."
      }
    },
    "version": 1
  },
  "userdoc": {
    "kind": "user",
    "methods": {},
    "version": 1
  }
}