{
  "contractName": "SwapToken",
  "abi": [
    {
      "inputs": [
        {
          "internalType": "address",
          "name": "_Grumpy",
          "type": "address"
        },
        {
          "internalType": "address",
          "name": "_owner1",
          "type": "address"
        },
        {
          "internalType": "address",
          "name": "_Pawthereum",
          "type": "address"
        },
        {
          "internalType": "uint256",
          "name": "_amount2",
          "type": "uint256"
        }
      ],
      "stateMutability": "nonpayable",
      "type": "constructor"
    },
    {
      "inputs": [],
      "name": "Grumpy",
      "outputs": [
        {
          "internalType": "contract IERC20",
          "name": "",
          "type": "address"
        }
      ],
      "stateMutability": "view",
      "type": "function",
      "constant": true
    },
    {
      "inputs": [],
      "name": "Pawthereum",
      "outputs": [
        {
          "internalType": "contract IERC20",
          "name": "",
          "type": "address"
        }
      ],
      "stateMutability": "view",
      "type": "function",
      "constant": true
    },
    {
      "inputs": [],
      "name": "amount1",
      "outputs": [
        {
          "internalType": "uint256",
          "name": "",
          "type": "uint256"
        }
      ],
      "stateMutability": "view",
      "type": "function",
      "constant": true
    },
    {
      "inputs": [],
      "name": "amount2",
      "outputs": [
        {
          "internalType": "uint256",
          "name": "",
          "type": "uint256"
        }
      ],
      "stateMutability": "view",
      "type": "function",
      "constant": true
    },
    {
      "inputs": [],
      "name": "owner1",
      "outputs": [
        {
          "internalType": "address",
          "name": "",
          "type": "address"
        }
      ],
      "stateMutability": "view",
      "type": "function",
      "constant": true
    },
    {
      "inputs": [],
      "name": "owner2",
      "outputs": [
        {
          "internalType": "address",
          "name": "",
          "type": "address"
        }
      ],
      "stateMutability": "view",
      "type": "function",
      "constant": true
    },
    {
      "inputs": [
        {
          "internalType": "address",
          "name": "_owner2",
          "type": "address"
        },
        {
          "internalType": "uint256",
          "name": "_amount1",
          "type": "uint256"
        }
      ],
      "name": "swap",
      "outputs": [],
      "stateMutability": "nonpayable",
      "type": "function"
    }
  ],
  "bytecode": "0x60806040523480156200001157600080fd5b506040516200115938038062001159833981810160405281019062000037919062000138565b836000806101000a81548173ffffffffffffffffffffffffffffffffffffffff021916908373ffffffffffffffffffffffffffffffffffffffff16021790555082600160006101000a81548173ffffffffffffffffffffffffffffffffffffffff021916908373ffffffffffffffffffffffffffffffffffffffff16021790555081600260006101000a81548173ffffffffffffffffffffffffffffffffffffffff021916908373ffffffffffffffffffffffffffffffffffffffff160217905550806004819055505050505062000216565b6000815190506200011b81620001e2565b92915050565b6000815190506200013281620001fc565b92915050565b600080600080608085870312156200014f57600080fd5b60006200015f878288016200010a565b945050602062000172878288016200010a565b935050604062000185878288016200010a565b9250506060620001988782880162000121565b91505092959194509250565b6000620001b182620001b8565b9050919050565b600073ffffffffffffffffffffffffffffffffffffffff82169050919050565b6000819050919050565b620001ed81620001a4565b8114620001f957600080fd5b50565b6200020781620001d8565b81146200021357600080fd5b50565b610f3380620002266000396000f3fe608060405234801561001057600080fd5b506004361061007d5760003560e01c8063736889141161005b57806373688914146100dc578063a3000ee4146100fa578063d004f0f714610118578063f400fde4146101345761007d565b8063057bfcc7146100825780632117868d146100a057806352709725146100be575b600080fd5b61008a610152565b6040516100979190610dc0565b60405180910390f35b6100a8610158565b6040516100b59190610ce5565b60405180910390f35b6100c661017e565b6040516100d39190610c6a565b60405180910390f35b6100e46101a4565b6040516100f19190610c6a565b60405180910390f35b6101026101ca565b60405161010f9190610ce5565b60405180910390f35b610132600480360381019061012d9190610997565b6101ee565b005b61013c610863565b6040516101499190610dc0565b60405180910390f35b60045481565b600260009054906101000a900473ffffffffffffffffffffffffffffffffffffffff1681565b600360009054906101000a900473ffffffffffffffffffffffffffffffffffffffff1681565b600160009054906101000a900473ffffffffffffffffffffffffffffffffffffffff1681565b60008054906101000a900473ffffffffffffffffffffffffffffffffffffffff1681565b81600360006101000a81548173ffffffffffffffffffffffffffffffffffffffff021916908373ffffffffffffffffffffffffffffffffffffffff16021790555080600581905550620186a06005546102479190610dec565b600481905550600160009054906101000a900473ffffffffffffffffffffffffffffffffffffffff1673ffffffffffffffffffffffffffffffffffffffff163373ffffffffffffffffffffffffffffffffffffffff1614806102f65750600360009054906101000a900473ffffffffffffffffffffffffffffffffffffffff1673ffffffffffffffffffffffffffffffffffffffff163373ffffffffffffffffffffffffffffffffffffffff16145b610335576040517f08c379a000000000000000000000000000000000000000000000000000000000815260040161032c90610da0565b60405180910390fd5b60055460008054906101000a900473ffffffffffffffffffffffffffffffffffffffff1673ffffffffffffffffffffffffffffffffffffffff166370a08231600360009054906101000a900473ffffffffffffffffffffffffffffffffffffffff166040518263ffffffff1660e01b81526004016103b39190610c6a565b60206040518083038186803b1580156103cb57600080fd5b505afa1580156103df573d6000803e3d6000fd5b505050506040513d601f19601f8201168201806040525081019061040391906109fc565b1015610444576040517f08c379a000000000000000000000000000000000000000000000000000000000815260040161043b90610d60565b60405180910390fd5b600454600260009054906101000a900473ffffffffffffffffffffffffffffffffffffffff1673ffffffffffffffffffffffffffffffffffffffff166370a08231600160009054906101000a900473ffffffffffffffffffffffffffffffffffffffff166040518263ffffffff1660e01b81526004016104c49190610c6a565b60206040518083038186803b1580156104dc57600080fd5b505afa1580156104f0573d6000803e3d6000fd5b505050506040513d601f19601f8201168201806040525081019061051491906109fc565b1015610555576040517f08c379a000000000000000000000000000000000000000000000000000000000815260040161054c90610d00565b60405180910390fd5b60055460008054906101000a900473ffffffffffffffffffffffffffffffffffffffff1673ffffffffffffffffffffffffffffffffffffffff1663dd62ed3e600360009054906101000a900473ffffffffffffffffffffffffffffffffffffffff16306040518363ffffffff1660e01b81526004016105d5929190610c85565b60206040518083038186803b1580156105ed57600080fd5b505afa158015610601573d6000803e3d6000fd5b505050506040513d601f19601f8201168201806040525081019061062591906109fc565b1015610666576040517f08c379a000000000000000000000000000000000000000000000000000000000815260040161065d90610d20565b60405180910390fd5b600454600260009054906101000a900473ffffffffffffffffffffffffffffffffffffffff1673ffffffffffffffffffffffffffffffffffffffff1663dd62ed3e600160009054906101000a900473ffffffffffffffffffffffffffffffffffffffff16306040518363ffffffff1660e01b81526004016106e8929190610c85565b60206040518083038186803b15801561070057600080fd5b505afa158015610714573d6000803e3d6000fd5b505050506040513d601f19601f8201168201806040525081019061073891906109fc565b1015610779576040517f08c379a000000000000000000000000000000000000000000000000000000000815260040161077090610d80565b60405180910390fd5b6107eb60008054906101000a900473ffffffffffffffffffffffffffffffffffffffff16600360009054906101000a900473ffffffffffffffffffffffffffffffffffffffff16600160009054906101000a900473ffffffffffffffffffffffffffffffffffffffff16600554610869565b61085f600260009054906101000a900473ffffffffffffffffffffffffffffffffffffffff16600160009054906101000a900473ffffffffffffffffffffffffffffffffffffffff16600360009054906101000a900473ffffffffffffffffffffffffffffffffffffffff16600454610869565b5050565b60055481565b60008473ffffffffffffffffffffffffffffffffffffffff166323b872dd8585856040518463ffffffff1660e01b81526004016108a893929190610cae565b602060405180830381600087803b1580156108c257600080fd5b505af11580156108d6573d6000803e3d6000fd5b505050506040513d601f19601f820116820180604052508101906108fa91906109d3565b90508061093c576040517f08c379a000000000000000000000000000000000000000000000000000000000815260040161093390610d40565b60405180910390fd5b5050505050565b60008135905061095281610eb8565b92915050565b60008151905061096781610ecf565b92915050565b60008135905061097c81610ee6565b92915050565b60008151905061099181610ee6565b92915050565b600080604083850312156109aa57600080fd5b60006109b885828601610943565b92505060206109c98582860161096d565b9150509250929050565b6000602082840312156109e557600080fd5b60006109f384828501610958565b91505092915050565b600060208284031215610a0e57600080fd5b6000610a1c84828501610982565b91505092915050565b610a2e81610e1d565b82525050565b610a3d81610e65565b82525050565b6000610a50602c83610ddb565b91507f42616c616e6365206e6f74206869676820656e6f75676820666f72205061777460008301527f68657265756d206f776e657200000000000000000000000000000000000000006020830152604082019050919050565b6000610ab6602983610ddb565b91507f546f6b656e20616c6c6f77616e636520746f6f206c6f7720666f72204772756d60008301527f707920686f6c64657200000000000000000000000000000000000000000000006020830152604082019050919050565b6000610b1c601583610ddb565b91507f546f6b656e207472616e73666572206661696c656400000000000000000000006000830152602082019050919050565b6000610b5c602883610ddb565b91507f42616c616e6365206e6f74206869676820656e6f75676820666f72204772756d60008301527f7079206f776e65720000000000000000000000000000000000000000000000006020830152604082019050919050565b6000610bc2603283610ddb565b91507f546f6b656e20616c6c6f77616e636520746f6f206c6f77204b697474656e546f60008301527f6b656e20666f722074686520686f6c64657200000000000000000000000000006020830152604082019050919050565b6000610c28600e83610ddb565b91507f4e6f7420617574686f72697a65640000000000000000000000000000000000006000830152602082019050919050565b610c6481610e5b565b82525050565b6000602082019050610c7f6000830184610a25565b92915050565b6000604082019050610c9a6000830185610a25565b610ca76020830184610a25565b9392505050565b6000606082019050610cc36000830186610a25565b610cd06020830185610a25565b610cdd6040830184610c5b565b949350505050565b6000602082019050610cfa6000830184610a34565b92915050565b60006020820190508181036000830152610d1981610a43565b9050919050565b60006020820190508181036000830152610d3981610aa9565b9050919050565b60006020820190508181036000830152610d5981610b0f565b9050919050565b60006020820190508181036000830152610d7981610b4f565b9050919050565b60006020820190508181036000830152610d9981610bb5565b9050919050565b60006020820190508181036000830152610db981610c1b565b9050919050565b6000602082019050610dd56000830184610c5b565b92915050565b600082825260208201905092915050565b6000610df782610e5b565b9150610e0283610e5b565b925082610e1257610e11610e89565b5b828204905092915050565b6000610e2882610e3b565b9050919050565b60008115159050919050565b600073ffffffffffffffffffffffffffffffffffffffff82169050919050565b6000819050919050565b6000610e7082610e77565b9050919050565b6000610e8282610e3b565b9050919050565b7f4e487b7100000000000000000000000000000000000000000000000000000000600052601260045260246000fd5b610ec181610e1d565b8114610ecc57600080fd5b50565b610ed881610e2f565b8114610ee357600080fd5b50565b610eef81610e5b565b8114610efa57600080fd5b5056fea264697066735822122071444037dca918673f3c5925f77a08cd5fb73d4151115ff524acaa7529f1684464736f6c63430008000033",
  "immutableReferences": {},
  "source": "pragma solidity ^0.8.0;\r\n\r\nimport \"@openzeppelin/contracts/token/ERC20/IERC20.sol\";\r\n\r\ncontract SwapToken {\r\n    IERC20 public Grumpy;\r\n    address public owner1;\r\n    IERC20 public Pawthereum;\r\n    address public owner2;\r\n    uint256 public amount2;\r\n    uint256 public amount1;\r\n\r\n    constructor(\r\n        address _Grumpy,\r\n        address _owner1,\r\n        address _Pawthereum,\r\n        uint256 _amount2\r\n    ) public {\r\n        Grumpy = IERC20(_Grumpy);\r\n        owner1 = _owner1;\r\n        Pawthereum = IERC20(_Pawthereum);\r\n        amount2 = _amount2;\r\n    }\r\n\r\n    function swap(address _owner2, uint256 _amount1) public {\r\n        owner2 = _owner2;\r\n        amount1 = _amount1;\r\n        amount2 = (amount1 / 100000);\r\n\r\n        require(msg.sender == owner1 || msg.sender == owner2, \"Not authorized\");\r\n\r\n        require(\r\n            Grumpy.balanceOf(owner2) >= amount1,\r\n            \"Balance not high enough for Grumpy owner\"\r\n        );\r\n\r\n        require(\r\n            Pawthereum.balanceOf(owner1) >= amount2,\r\n            \"Balance not high enough for Pawthereum owner\"\r\n        );\r\n\r\n        require(\r\n            Grumpy.allowance(owner2, address(this)) >= amount1,\r\n            \"Token allowance too low for Grumpy holder\"\r\n        );\r\n        require(\r\n            Pawthereum.allowance(owner1, address(this)) >= amount2,\r\n            \"Token allowance too low KittenToken for the holder\"\r\n        );\r\n\r\n        // transfer tokens\r\n        _safeTransferFrom(Grumpy, owner2, owner1, amount1);\r\n        _safeTransferFrom(Pawthereum, owner1, owner2, amount2);\r\n    }\r\n\r\n    function _safeTransferFrom(\r\n        IERC20 token,\r\n        address sender,\r\n        address recipient,\r\n        uint256 amount\r\n    ) private {\r\n        bool sent = token.transferFrom(sender, recipient, amount);\r\n        require(sent, \"Token transfer failed\");\r\n    }\r\n}\r\n",
  "sourcePath": "C:/Users/kdmcg/Documents/oz/contracts/SwapToken.sol",
  "compiler": {
    "name": "solc",
    "version": "0.8.0+commit.c7dfd78e.Emscripten.clang"
  },
  "schemaVersion": "3.2.3",
  "updatedAt": "2021-08-15T15:57:01.902Z",
  "networkType": "ethereum",
  "devdoc": {
    "kind": "dev",
    "methods": {},
    "version": 1
  },
  "userdoc": {
    "kind": "user",
    "methods": {},
    "version": 1
  }
}